{
  "contractName": "TodoList",
  "abi": [
    {
      "constant": true,
      "inputs": [],
      "name": "count",
      "outputs": [
        {
          "name": "",
          "type": "uint256"
        }
      ],
      "payable": false,
      "stateMutability": "view",
      "type": "function",
      "signature": "0x06661abd"
    },
    {
      "constant": true,
      "inputs": [],
      "name": "otherCount",
      "outputs": [
        {
          "name": "",
          "type": "uint256"
        }
      ],
      "payable": false,
      "stateMutability": "view",
      "type": "function",
      "signature": "0x92157390"
    }
  ],
  "bytecode": "0x608060405260008055600a60015534801561001957600080fd5b5060bb806100286000396000f3fe60806040526004361060485763ffffffff7c010000000000000000000000000000000000000000000000000000000060003504166306661abd8114604d57806392157390146071575b600080fd5b348015605857600080fd5b50605f6083565b60408051918252519081900360200190f35b348015607c57600080fd5b50605f6089565b60005481565b6001548156fea165627a7a72305820ee09e2ed9bde7cc0e5f10f0e4c764865ca65aad97c733a0b5198cd86c3993a670029",
  "source": "pragma solidity >=0.4.22 <0.9.0;\n\ncontract TodoList{\n    uint public count = 0;\n    uint public otherCount = 10;\n}\n\n",
  "sourcePath": "/Users/sreedharputtu/eth-todo-list/contracts/TodoList.sol",
  "compiler": {
    "name": "solc",
    "version": "0.5.0+commit.1d4f565a.Emscripten.clang"
  },
  "schemaVersion": "3.0.1",
  "updatedAt": "2022-01-26T09:58:50.401Z",
  "devdoc": {
    "methods": {}
  },
  "userdoc": {
    "methods": {}
  }
}